:020000040800F2
:1000000000280020013D0008890100088B0100083C
:100010008D0100088F010008910100080000000018
:10002000000000000000000000000000B12B0008EC
:100030009301000800000000512C0008952C0008D6
:10004000493D0008493D0008493D0008493D000878
:10005000493D0008493D0008493D0008493D000868
:10006000493D0008493D0008493D0008493D000858
:10007000493D0008493D0008493D0008493D000848
:10008000493D0008493D0008493D0008493D000838
:10009000493D0008493D0008493D0008493D000828
:1000A000493D0008493D0008493D0008493D000818
:1000B000493D00089501000800000000493D000886
:1000C000493D00080000000000000000493D000814
:1000D00000000000A5010008493D000800000000E4
:1000E000493D0008493D0008493D00080000000066
:1000F0000000000000000000000000000000000000
:0C01000000000000000000005FF808F1A3
:1001100010B5054C237833B9044B13B10448AFF341
:1001200000800123237010BD10000020000000009B
:10013000C03D000808B5034B1BB103490348AFF3AA
:10014000008008BD0000000014000020C03D000831
:1001500008B502F0ADFA03F0B3FD02F0CBFA08BD2A
:1001600008B503F025FAFFF7F3FF03F0A0F9FCE769
:1001700008B50268034B9A4200D008BD00F044F96C
:10018000FBE700BF00040040FEE7FEE7FEE7FEE7F6
:10019000FEE7704708B5024800F092FE08BD00BFB8
:1001A0002C00002008B5024802F03EFF08BD00BF49
:1001B0006C1B002000B583B0114B9A6942F001021C
:1001C0009A619A6902F001020092009ADA6942F09B
:1001D0008052DA61DB6903F080530193019B0022B6
:1001E0000F216FF0010000F0EFFD064A536823F085
:1001F000E06343F08073536003B05DF804FB00BF1D
:10020000001002400000014010B586B000230293A8
:100210000393049305930268124B9A4201D006B0EF
:1002200010BD114CA36943F00803A361A36903F057
:1002300008030093009BC02302931223039301231E
:1002400004930323059302A9084800F03FFCE369E7
:1002500043F40013E361E36903F400130193019B8A
:10026000DDE700BF0054004000100240000C0140D8
:1002700010B586B00023029303930493059302689C
:10028000164B9A4201D006B010BD03F560439A693F
:1002900042F480529A619A6902F480520092009A64
:1002A0009A6942F004029A619B6903F00403019386
:1002B000019BA02302930223039303230593084C7D
:1002C00002A9204600F002FC40230293002303937E
:1002D000049302A9204600F0F9FBD4E70030014066
:1002E0000008014030B587B00023029303930493C4
:1002F000059302681B4B9A4201D007B030BD03F54D
:1003000058439A6942F480429A619A6902F48042A1
:100310000092009A9A6942F004029A619B6903F084
:1003200004030193019B4FF4007302930223039390
:10033000032305930C4D02A9284600F0C7FB4FF498
:100340008063029300240394049402A9284600F0D9
:10035000BDFB22460521252000F036FD252000F0BA
:100360006BFDCAE7003801400008014000B589B0C4
:10037000014600221D2000F027FD1D2000F05CFD3D
:10038000144BDA6942F00202DA61DB6903F002031E
:100390000193019B02A903A800F07AFB00F058FB2F
:1003A0000D4BA3FB00239B0C013B0C480C4A026045
:1003B00040F2E732C260436000230361836000F0D3
:1003C0006FFE18B1012009B05DF804FB034800F08E
:1003D00043FDF8E70010024083DE1B432C000020A1
:1003E0000004004008B5074A136843F01003136087
:1003F000032000F0D7FC0020FFF7B8FFFFF7DAFE7C
:10040000002008BD00200240034A1168034B1B78FE
:100410000B441360704700BF7400002000000020F0
:10042000014B1868704700BF7400002082B0084B71
:100430001B68084AA2FB03235B0A00FB03F301933A
:1004400000BF019B5A1E0192002BF9D102B07047E8
:1004500008000020D34D6210002800F0F18170B533
:1004600082B00446036813F0010F2CD0994B5B68EF
:1004700003F00C03042B1DD0964B5B6803F00C03B8
:10048000082B12D06368B3F5803F41D0002B55D1C3
:1004900003F1804303F504331A6822F480321A60B2
:1004A0001A6822F480221A6037E08A4B5B6813F4E2
:1004B000803FE7D0874B1B6813F4003F03D063688D
:1004C000002B00F0BF81236813F0020F75D0814B21
:1004D0005B6813F00C0F5FD07E4B5B6803F00C037E
:1004E000082B54D02369002B00F08A807A4B01221C
:1004F0001A60FFF795FF0546764B1B6813F0020F55
:1005000075D1FFF78DFF401B0228F5D903209EE12E
:10051000704A136843F480331360636843B3FFF792
:100520007FFF05466B4B1B6813F4003FCBD1FFF7F1
:1005300077FF401B6428F5D9032088E1B3F5A02F8D
:1005400009D0644B1A6822F480321A601A6822F4C7
:1005500080221A60E1E703F18043A3F53C331A6877
:1005600042F480221A601A6842F480321A60D4E79A
:10057000FFF756FF0546574B1B6813F4003FA2D008
:10058000FFF74EFF401B6428F5D903205FE1514B74
:100590005B6813F4803FA5D14E4B1B6813F0020F2C
:1005A00003D02369012B40F04F814A4A136823F09E
:1005B000F803616943EAC1031360236813F0080F6D
:1005C00033D0A369002B5CD0434B0122C3F88024B5
:1005D000FFF726FF05463F4B5B6A13F0020F21D160
:1005E000FFF71EFF401B0228F5D903202FE1394AEF
:1005F000136823F0F803616943EAC1031360DCE781
:10060000354B00221A60FFF70BFF0546314B1B6884
:1006100013F0020FD1D0FFF703FF401B0228F5D9DA
:10062000032014E10120FFF701FF236813F0040FFA
:1006300000F09680274BDB6913F0805F34D1254BA7
:10064000DA6942F08052DA61DB6903F0805301938A
:10065000019B0125214B1B6813F4807F26D0E368A2
:10066000012B3DD0002B53D103F1804303F504331C
:100670001A6A22F001021A621A6A22F004021A624D
:1006800033E0154B0022C3F88024FFF7C9FE05466E
:10069000104B5B6A13F0020FC7D0FFF7C1FE401B7F
:1006A0000228F5D90320D2E00025D3E70B4A1368CE
:1006B00043F480731360FFF7B3FE0646074B1B68D5
:1006C00013F4807FCBD1FFF7ABFE801B6428F5D9F4
:1006D0000320BCE0001002400000424200700040D5
:1006E0005F4A136A43F001031362E36833B3FFF711
:1006F00097FE06465A4B1B6A13F0020F2FD1FFF7E5
:100700008FFE801B41F288339842F3D903209EE08C
:10071000052B09D0524B1A6A22F001021A621A6A9A
:1007200022F004021A62E0E74D4B1A6A42F004021A
:100730001A621A6A42F001021A62D6E7FFF770FEE7
:100740000646474B1B6A13F0020F08D0FFF768FEFE
:10075000801B41F288339842F3D9032077E0E5B952
:10076000E369002B72D03E4A526802F00C02082A5C
:1007700056D0022B17D03B4B00221A66FFF750FED3
:100780000446374B1B6813F0007F47D0FFF748FE45
:10079000001B0228F5D9032059E0314AD36923F020
:1007A0008053D361DCE72F4B00221A66FFF738FE37
:1007B00005462B4B1B6813F0007F06D0FFF730FE79
:1007C000401B0228F5D9032041E0236AB3F5803F9E
:1007D0001AD023494B6823F47413226A606A0243D7
:1007E00013434B601F4B01221A66FFF719FE0446A4
:1007F0001B4B1B6813F0007F0ED1FFF711FE001B8F
:100800000228F5D9032022E0154A536823F4003367
:10081000A1680B435360DCE7002018E0002016E0DD
:10082000012B16D00E4B5B6803F48031226A914293
:1008300011D103F47013626A93420ED1002006E0D6
:1008400001207047012002E0012000E0002002B0FA
:1008500070BD0120FBE70120F9E70120F7E700BFA9
:10086000001002400000424286B0174B0FCB0DF142
:10087000180C0CE90F0040F20123ADF80430134BC3
:100880005B6803F00C02082A02D0114806B07047DA
:10089000C3F3834218326A4412F8100C13F4803FF9
:1008A0000DD00A4B5B68C3F3404318336B4413F815
:1008B000143C074A02FB00F0B0FBF3F0E6E7054BFF
:1008C00003FB00F0E2E700BFD83D00080010024043
:1008D00000127A0000093D00002800F0A08070B5E9
:1008E0000D460446524B1B6803F007038B420BD2A4
:1008F0004F4A136823F007030B431360136803F098
:1009000007038B4240F08D80236813F0020F17D04D
:1009100013F0040F04D0474A536843F4E063536074
:10092000236813F0080F04D0424A536843F460531D
:100930005360404A536823F0F003A1680B435360AF
:10094000236813F0010F31D06368012B20D0022BF4
:1009500025D0384A126812F0020F64D035494A682F
:1009600022F0030213434B60FFF75AFD0646314B5A
:100970005B6803F00C036268B3EB820F16D0FFF7DD
:100980004FFD801B41F288339842F0D9032045E0A7
:10099000284A126812F4003FE0D101203EE0254AC7
:1009A000126812F0007FD9D1012037E0204B1B687C
:1009B00003F00703AB420AD91D4A136823F007036B
:1009C0002B431360136803F00703AB422DD1236858
:1009D00013F0040F06D0174A536823F4E063E1686C
:1009E0000B435360236813F0080F07D0114A536874
:1009F00023F46053216943EAC1035360FFF734FFD6
:100A00000C4B5B68C3F303130B4AD35CD8400B4B0E
:100A100018600B4B1868FFF7A9FC002070BD01207F
:100A200070470120FAE70120F8E70120F6E700BF50
:100A30000020024000100240EC3D000808000020A9
:100A400004000020014B1868704700BF0800002018
:100A500008B5FFF7F7FF044B5B68C3F30223034AB3
:100A6000D35CD84008BD00BF00100240FC3D000828
:100A700008B5FFF7E7FF044B5B68C3F3C223034AE3
:100A8000D35CD84008BD00BF00100240FC3D000808
:100A90000F2303600B4B5A6802F0030242605A684E
:100AA00002F0F00282605A6802F4E062C2605B68A1
:100AB000DB0803F4E0630361034B1B6803F00703E7
:100AC0000B607047001002400020024070B582B0F9
:100AD0000024A4468BE07F4DAB4210D007D97E4D59
:100AE000AB420CD005F58035AB4208D015E0A5F53A
:100AF0008015AB4203D005F57025AB4209D18B6858
:100B0000002B00F0BF80012B00F0B7804261082469
:100B100003E0A5F58015AB42F1D0BEF1FF0F00F266
:100B2000B3800646BEF1FF0F00F2B0804FEA8C02A0
:100B300033680F25954023EA050304FA02F21343B4
:100B400033604B6813F0805F4FD0644B9A6942F07A
:100B500001029A619B6903F001030193019B4FEA33
:100B60009C02951C5E4B53F825600CF00305AD000C
:100B70000F23AB4026EA03065A4B984200F08C80C4
:100B800003F58063984200F0898003F58063984202
:100B900000F080800323AB4033430232504D45F8D0
:100BA00022304B6813F4803F7AD04F4A136843EAEF
:100BB0000E0313604B6813F4003F77D04A4A536822
:100BC00043EA0E0353604B6813F4801F74D0464A07
:100BD000936843EA0E0393604B6813F4001F71D0CF
:100BE000414AD36843EA0E03D3600CF1010C0B6851
:100BF00033FA0CF26CD0012202FA0CF203EA020E74
:100C000032EA0303F1D14B68122B3FF664AF122B8B
:100C100083D801A555F823F0FF0A0008650C0008E9
:100C20006F0C0008810C00081B0B00081B0B000850
:100C30001B0B00081B0B00081B0B00081B0B0008FC
:100C40001B0B00081B0B00081B0B00081B0B0008EC
:100C50001B0B00081B0B00081B0B0008690C00088D
:100C6000750C0008CC6858E7CC68043455E7CC68AC
:100C7000083452E7CC680C344FE7026108244CE793
:100C800000244AE7042448E7061D4BE7ACF10802BC
:100C900092004DE702237EE700237CE701237AE7F9
:100CA000114A136823EA0E03136083E70E4A536860
:100CB00023EA0E03536086E70B4A936823EA0E0388
:100CC000936089E7084AD36823EA0E03D3608CE770
:100CD00002B070BD00002210000031100010024070
:100CE0000000014000080140000401400AB1016118
:100CF0007047090401617047C36801EA030221EAF1
:100D0000030141EA024101617047000008B590F813
:100D10002130022B03D004238363012008BD026825
:100D2000136823F00E0313600268136823F00103B5
:100D300013600368194A934214D0143293421FD0AF
:100D4000143293421ED0143293421ED01432934276
:100D50001ED01432934202D04FF0807203E04FF461
:100D6000801200E001220E4B5A60012380F82130EE
:100D7000002380F82030436B6BB198470020CDE70B
:100D80001022F0E74FF48072EDE74FF48052EAE76B
:100D90004FF48032E7E70020C0E700BF08000240C0
:100DA00000000240074AD36823F4E0631B041B0CD5
:100DB000000200F4E060034343F0BF6343F40033F8
:100DC000D360704700ED00E000B5194BDB68C3F35A
:100DD0000223C3F1070CBCF1040F28BF4FF0040C31
:100DE00003F1040EBEF1060F18D9033B4FF0FF3E8E
:100DF0000EFA0CFC21EA0C0199400EFA03FE22EADD
:100E00000E020A4300280BDB1201D2B200F160404F
:100E100000F5614080F800235DF804FB0023E5E75E
:100E200000F00F001201D2B2024B1A54F4E700BFD7
:100E300000ED00E014ED00E0002807DB00F01F02E9
:100E4000400901239340024A42F82030704700BF16
:100E500000E100E07047000090F83D30DBB2012B6C
:100E600023D1022380F83D300268D36843F00103A8
:100E7000D36003680F4A93420CD0B3F1804F09D07E
:100E8000A2F59432934205D01A6842F001021A602A
:100E9000002070479A6802F00702062A07D01A68F5
:100EA00042F001021A6000207047012070470020C4
:100EB000704700BF002C0140704770477047704773
:100EC00010B5044603681A6912F0020F11D0DA68EF
:100ED00012F0020F0DD06FF002021A6101230377A6
:100EE00003689B6913F0030F70D0FFF7E6FF002340
:100EF000237723681A6912F0040F12D0DA6812F00F
:100F0000040F0ED06FF004021A61022323772368C6
:100F10009B6913F4407F5FD02046FFF7CEFF00238C
:100F2000237723681A6912F0080F12D0DA6812F0DA
:100F3000080F0ED06FF008021A610423237723688C
:100F4000DB6913F0030F4ED02046FFF7B6FF0023F6
:100F5000237723681A6912F0100F12D0DA6812F0A2
:100F6000100F0ED06FF010021A6108232377236848
:100F7000DB6913F4407F3DD02046FFF79EFF00233E
:100F8000237723681A6912F0010F03D0DA6812F090
:100F9000010F36D123681A6912F0800F03D0DA6886
:100FA00012F0800F34D123681A6912F0400F03D079
:100FB000DA6812F0400F32D123681A6912F0200F5C
:100FC00003D0DA6812F0200F30D110BDFFF774FFA4
:100FD0002046FFF773FF8AE72046FFF76DFF2046A4
:100FE000FFF76CFF9BE72046FFF766FF2046FFF701
:100FF00065FFACE72046FFF75FFF2046FFF75EFF87
:10100000BDE76FF001021A612046FFF7B1F8C1E7B2
:101010006FF080021A61204600F06FF8C3E76FF0AE
:1010200040021A612046FFF74AFFC5E76FF0200231
:101030001A61204600F060F8C7E700000368174A0D
:10104000904206D0B0F1804F03D0A2F59432904286
:1010500003D123F070034A681343104A904206D02C
:10106000B0F1804F03D0A2F59432904203D123F423
:101070004073CA68134323F080034A691343036033
:101080008B68C3620B688362044B984202D00123D1
:10109000436170470B690363F9E700BF002C01400F
:1010A00040B310B5044690F83D30F3B1022384F804
:1010B0003D30214651F8040BFFF7C0FF012384F8AF
:1010C000463084F83E3084F83F3084F8403084F86D
:1010D000413084F8423084F8433084F8443084F856
:1010E000453084F83D30002010BD80F83C30FFF7DB
:1010F000B1FEDBE70120704770477047704700F191
:10110000080343604FF0FF328260C3600361002335
:101110000360704700230361704743684B609A681F
:101120008A60516099600861036801330360704709
:1011300030B40D68B5F1FF3F11D000F108031C4633
:101140005B681A68AA42FAD963684B6099608C6040
:101150006160086103680133036030BC7047046953
:10116000F2E70369416882688A60416851605A68A1
:10117000824206D0002202611A68013A1A60186899
:10118000704782685A60F5E710B5044601F022FD09
:10119000A26BE36B9A4204D0002401F03DFD20468F
:1011A00010BD0124F9E710B5044601F013FDA36B4F
:1011B00023B9012401F030FD204610BD0024F9E7D9
:1011C00070B504461546866B026C5AB903681BB1AC
:1011D00000200136A66370BD406801F009F80023C5
:1011E0006360F6E76DB9806802F0D4FD226CA368F5
:1011F0001344A3606268934219D32368A36028460E
:10120000E7E7C06802F0C6FD226C5142E3689B1A12
:10121000E3602268934202D263680B44E360022DCC
:1012200001D00020D5E726B1013E0020D1E72846B5
:10123000CFE70020CDE708B50346026C62B108464F
:10124000D9681144D960D3F804C0614501D3196845
:10125000D960D96802F09EFD08BD38B5054601F099
:10126000B9FC95F8454064B201E0013C64B2002C41
:101270000ADD6B6A43B105F1240000F00FFF00287E
:10128000F3D000F09FFFF0E7FF2385F8453001F031
:10129000C3FC01F09FFC95F8444064B201E0013CBE
:1012A00064B2002C0ADD2B6943B105F1100000F097
:1012B000F5FE0028F3D000F085FFF0E7FF2385F866
:1012C000443001F0A9FC38BD38B5E0B10D46044604
:1012D00001F080FC2368E26B216C01FB023060604E
:1012E0000020A063A360013A02FB0133E360FF2307
:1012F00084F8443084F84530FDB9236963B901F0BE
:101300008BFC012038BD4FF0500383F31188BFF3ED
:101310006F8FBFF34F8FFEE704F1100000F0BEFEA9
:101320000028ECD04FF0E0234FF08052C3F8042D9A
:10133000BFF34F8FBFF36F8FE1E704F11000FFF7AA
:10134000DEFE04F12400FFF7DAFED8E738B51D46CB
:10135000049C0B4649B92460E063236401212046C4
:10136000FFF7B2FF84F84C5038BD2260F4E740B973
:101370004FF0500383F31188BFF36F8FBFF34F8F8C
:10138000FEE710B584B01C46844653B192B189B9CA
:101390004FF0500383F31188BFF36F8FBFF34F8F6C
:1013A000FEE74FF0500383F31188BFF36F8FBFF355
:1013B0004F8FFEE76AB150230393039B502B13D04A
:1013C0004FF0500383F31188BFF36F8FBFF34F8F3C
:1013D000FEE70029EFD04FF0500383F31188BFF3ED
:1013E0006F8FBFF34F8FFEE7012384F846300094E0
:1013F0009DF818306046FFF7A9FF204604B010BDE5
:10140000F0B585B0019288B10F461D460446B1B1D2
:10141000022D20D1E36B012B1DD04FF0500383F33D
:101420001188BFF36F8FBFF34F8FFEE74FF050036C
:1014300083F31188BFF36F8FBFF34F8FFEE7036C09
:10144000002BE5D04FF0500383F31188BFF36F8F6B
:10145000BFF34F8FFEE700F0BBFE064658B9019B75
:10146000002B48D04FF0500383F31188BFF36F8FE8
:10147000BFF34F8FFEE700263DE02A46394620465F
:10148000FFF79EFE636A7BB948B14FF0E0234FF04F
:101490008052C3F8042DBFF34F8FBFF36F8F01F05D
:1014A000BBFB012005B0F0BD04F1240000F0F6FD07
:1014B0000028F4D04FF0E0234FF08052C3F8042D01
:1014C000BFF34F8FBFF36F8FE9E701F0A5FB00205B
:1014D000E8E702A800F028FE012619E0002384F8BE
:1014E000443021E0002384F8453023E02046FFF714
:1014F000B4FE00F0B3FC01F06DFBA26BE36B9A420B
:10150000BBD3022DB9D0019B002BDED0002EE0D042
:1015100001F082FB00F008FC01F05CFB94F8442031
:1015200052B2B2F1FF3FD9D094F8452052B2B2F195
:10153000FF3FD7D001F070FB01A902A800F000FE28
:10154000D8B92046FFF720FE0028CFD0019904F13A
:10155000100000F06FFD2046FFF77FFE00F07EFCDC
:101560000028C8D14FF0E0234FF08052C3F8042D7B
:10157000BFF34F8FBFF36F8FBDE72046FFF76DFEC0
:1015800000F06CFC00208DE72DE9F84390B10F4688
:1015900016461C460546B1B1022C20D1EB6B012B3F
:1015A0001DD04FF0500383F31188BFF36F8FBFF34B
:1015B0004F8FFEE74FF0500383F31188BFF36F8F17
:1015C000BFF34F8FFEE7036C002BE5D04FF05003C5
:1015D00083F31188BFF36F8FBFF34F8FFEE701F0E6
:1015E000E3FBEFF311884FF0500383F31188BFF34F
:1015F0006F8FBFF34F8FAA6BEB6B9A4206D3022C0F
:1016000004D0002088F31188BDE8F88395F8459050
:101610004FFA89F9224639462846FFF7D1FDB9F13C
:10162000FF3F06D009F101035BB285F84530012088
:10163000E8E76B6A0BB90120E4E705F1240000F04C
:101640002DFD18B126B101203060DBE70120D9E77C
:101650000120D7E7F0B585B0019290B10F4604465E
:10166000C1B100F0B5FD064600BB019B002B5ED06A
:101670004FF0500383F31188BFF36F8FBFF34F8F89
:10168000FEE74FF0500383F31188BFF36F8FBFF372
:101690004F8FFEE7036C002BE3D04FF0500383F332
:1016A0001188BFF36F8FBFF34F8FFEE700263EE038
:1016B00039462046FFF7BFFD013DA563236923B9E5
:1016C00001F0AAFA012005B0F0BD04F1100000F00D
:1016D000E5FC0028F4D04FF0E0234FF08052C3F82F
:1016E000042DBFF34F8FBFF36F8FE9E701F094FA3A
:1016F0000020E8E702A800F017FD012621E0002302
:1017000084F8443029E0002384F845302BE020465B
:10171000FFF7A3FD00F0A2FB09E02046FFF79DFDC7
:1017200000F09CFB2046FFF73EFD00283FD101F072
:1017300051FAA56B002DBBD1019B002BD6D0002EFA
:10174000D8D001F069FA00F0EFFA01F043FA94F80A
:1017500044305BB2B3F1FF3FD1D094F845305BB277
:10176000B3F1FF3FCFD001F057FA01A902A800F072
:10177000E7FC0028D1D12046FFF715FD0028C6D090
:10178000019904F1240000F055FC2046FFF765FDA7
:1017900000F064FB0028CAD14FF0E0234FF08052E4
:1017A000C3F8042DBFF34F8FBFF36F8FBFE7002047
:1017B00089E700000023072B0CD8074A52F8332092
:1017C0000AB10133F7E7044A42F8331002EBC302CF
:1017D00050607047704700BF7800002070B5044625
:1017E0000D46164601F0F6F994F844305BB2B3F1B9
:1017F000FF3F0DD094F845305BB2B3F1FF3F0BD003
:1018000001F00AFAA36B5BB12046FFF726FD70BD1D
:10181000002384F84430EDE7002384F84530EFE7F7
:101820003246294604F1240000F01CFCECE70000DD
:10183000084B1B681B6823B9074B4FF0FF321A6037
:101840007047044B1B68DB68DB685A68024B1A6000
:10185000704700BFBC000020680500202DE9F0475C
:1018600080460D4617469946089EDDF824A00A9C3E
:101870009200A521206B02F09BFA236B07F18042B6
:10188000013A03EB820727F007074FF0000CBCF189
:101890000F0F09D815F80C3004EB0C0282F8343025
:1018A00013B10CF1010CF2E7002384F84330372E1A
:1018B00000D93726E662E66400252565201DFFF77E
:1018C00029FC04F11800FFF725FC2461C6F1380655
:1018D000A6616462656584F858504A4641463846B8
:1018E00001F052F92060BAF1000F01D0CAF80040AF
:1018F000BDE8F08738B5002407E004EB84029300CC
:101900000E481844FFF7FBFB0134372CF5D90C4D7A
:101910002846FFF7F4FB0B4C2046FFF7F0FB0A4884
:10192000FFF7EDFB0948FFF7EAFB0948FFF7E7FB84
:10193000084B1D60084B1C6038BD00BFC400002070
:101940003C05002050050020700500209C0500206B
:1019500088050020BC000020C000002010B504460F
:1019600001F038F9224A136801331360214B1B68D8
:101970005BB1214B1B686BB91E4B1B68DA6AE36ACB
:101980009A4207D81B4B1C6004E01A4B1C6013687A
:10199000012B29D0194A1368013313606364E06A8C
:1019A000174B1B68984201D9154B186000EB80005B
:1019B000211D144B03EB8000FFF7AFFB01F02CF966
:1019C0000D4B1B687BB10B4B1B68DA6AE36A9A42CA
:1019D00009D24FF0E0234FF08052C3F8042DBFF33B
:1019E0004F8FBFF36F8F10BDFFF784FFD2E700BFAB
:1019F00024050020B80000208405002034050020C4
:101A000038050020C400002010B5044690F8593075
:101A100063B1012B11D0022B0ED04FF0500383F392
:101A20001188BFF36F8FBFF34F8FFEE7006B01F09C
:101A300043F8204601F040F810BD01F03DF8FBE707
:101A40000F4B1B68D3B110B501F0C4F80D4BDB6828
:101A5000DC68201DFFF785FB0B4A1368013B136010
:101A6000074A1368013B136001F0D6F82046FFF7E0
:101A7000CBFF034B1B68002BE6D110BD704700BFA6
:101A8000280500209C0500202405002008B5FFF74C
:101A9000D7FF074B1B68012BF9D94FF0E0234FF01C
:101AA0008052C3F8042DBFF34F8FBFF36F8FEEE763
:101AB000C400002070B504460D46174B1E68174B36
:101AC00018680430FFF74DFBB4F1FF3F0DD03444EC
:101AD000124B1B685C60A64210D9114B18680F4B63
:101AE00019680431FFF724FB70BD002DEFD00B4BBC
:101AF000196804310B48FFF710FBF5E70A4B18682B
:101B0000064B19680431FFF713FB084B1B68A3420F
:101B1000EAD9064B1C60E7E7B0050020B8000020BA
:101B2000C000002088050020BC00002068050020BF
:101B300030B587B00B9C7CB10C9DB5B15C2504958C
:101B4000049D5C2D1AD04FF0500383F31188BFF32E
:101B50006F8FBFF34F8FFEE74FF0500383F3118871
:101B6000BFF36F8FBFF34F8FFEE74FF0500383F348
:101B70001188BFF36F8FBFF34F8FFEE70C9D2C636F
:101B8000022485F8594000240394029505AC019481
:101B90000A9C0094FFF762FE0C98FFF7DFFE0598A1
:101BA00007B030BD2DE9F04385B00746884614469E
:101BB0001E46900000F008FF00B381465C2000F054
:101BC00003FF0546B0B1C0F83090E5B1002385F8B9
:101BD0005930039302950D9B01930C9B0093334660
:101BE000224641463846FFF739FE2846FFF7B6FE43
:101BF000012005E0484600F05FFFE6E74FF0FF30C8
:101C000005B0BDE8F0834FF0FF30F9E738B5D0B14B
:101C10000446194B1B68834226D000F0DBFF656940
:101C200000F0FAFF154B1B68AB421FD0144B1B682A
:101C3000AB421DD0134B9D420ED0134B9D4219D089
:101C400085B1012011E04FF0500383F31188BFF3F9
:101C50006F8FBFF34F8FFEE7A36A0BB1022004E042
:101C6000032002E0042000E0002038BD0220FCE751
:101C70000220FAE70420F8E7B8000020BC000020AA
:101C8000C0000020880500209C05002010B588B009
:101C900000240594069407AA06A905A800F01AFED8
:101CA000059B0293069B019300942346079A1849CB
:101CB0001848FFF73DFF184B186040B100F04CFB8F
:101CC000012806D0B0F1FF3F18D008B010BD0020A9
:101CD000F6E74FF0500383F31188BFF36F8FBFF324
:101CE0004F8F0E4B4FF0FF321A600D4B01221A60DE
:101CF0000C4B00221A6000F0F7FFE6E74FF05003AC
:101D000083F31188BFF36F8FBFF34F8FFEE700BFE0
:101D1000043E00088D1A00086405002068050020B4
:101D200084050020B0050020024A136801331360C7
:101D3000704700BF30050020014B1868704700BF96
:101D4000B0050020F8B53A4B1B68002B64D1394B25
:101D50001D6801351D60C5B9374B1B681B6843B151
:101D60004FF0500383F31188BFF36F8FBFF34F8F92
:101D7000FEE7314A1168314B186810601960304A2B
:101D8000136801331360FFF753FD2E4B1B68AB4202
:101D900038D900272C4B1B68DB6A03EB83039A00BE
:101DA0002A4B9B58012B3CD901273AE00127224BB3
:101DB0001B681B6843B3204B1B68DB68DC686368E7
:101DC0009D4226D3261D3046FFF7CBF9A36A1BB1EF
:101DD00004F11800FFF7C5F9E36A1D4A126893423F
:101DE00001D91B4A136003EB83039A00314617485D
:101DF0001044FFF792F9E26A134B1B68DB6A9A42C0
:101E0000D4D2D4E70027D2E70E4B4FF0FF321A604E
:101E1000C0E70C4A1360BDE70E4A13680133136034
:101E200000270D4B1B6803B101273846F8BD00BFE2
:101E300030050020B0050020BC000020C0000020BC
:101E40006C05002068050020B8000020C4000020B8
:101E5000380500202C050020B405002038B5354B8E
:101E60001B6843B94FF0500383F31188BFF36F8FA2
:101E7000BFF34F8FFEE700F0ADFE2E4B1A68013A1C
:101E80001A601B68002B4FD12B4B1B680BB9002429
:101E90004BE00024294B1B681BB3284BDB68DC6834
:101EA00004F11800FFF75DF9251D2846FFF759F9E1
:101EB000E06A234B1B68984201D9214B186000EB64
:101EC000800029461F4B03EB8000FFF726F9E26AEA
:101ED0001D4B1B68DB6A9A42DCD31C4B01221A6043
:101EE000D8E70CB1FFF7A4FC194B1C6884B9174B59
:101EF0001C68D4B14FF0E0234FF08052C3F8042D9A
:101F0000BFF34F8FBFF36F8F01240EE0013C07D06A
:101F1000FFF718FF0028F9D00C4B01221A60F5E7F3
:101F20000B4B00221A60E2E7002400F075FE204609
:101F300038BD00BF300500202405002070050020BA
:101F400038050020C4000020B8000020B40500209F
:101F50002C05002010B5A8B10446104B1B6843B1F6
:101F60004FF0500383F31188BFF36F8FBFF34F8F90
:101F7000FEE7FFF7D9FE00212046FFF79BFDFFF7A4
:101F80006DFF48B94FF0E0234FF08052C3F8042DA5
:101F9000BFF34F8FBFF36F8F10BD00BF3005002020
:101FA0001F4B1B681BB11F4B01221A6070471D4B52
:101FB00000221A601C4B1B6803EB83018A001B493B
:101FC0008A585AB90BB1013BF6E74FF0500383F33F
:101FD0001188BFF36F8FBFF34F8FFEE703EB8300D2
:101FE00082000A4450684068506003EB830C4FEA5B
:101FF0008C020832114488420BD003EB830291001B
:102000000A4A0A445268D168094A1160064A1360B4
:102010007047406862469100044A0A445060ECE709
:1020200030050020B405002038050020C400002041
:10203000B800002058B110B50C46094A1168183193
:10204000FFF776F801212046FFF734FD10BD4FF071
:10205000500383F31188BFF36F8FBFF34F8FFEE7F9
:10206000B800002038B570B10D4614460A4A116810
:102070001831FFF752F80CB14FF0FF3521462846D2
:10208000FFF718FD38BD4FF0500383F31188BFF3FD
:102090006F8FBFF34F8FFEE7B800002038B5C368DD
:1020A000DC6824B304F118052846FFF75AF8184BEA
:1020B0001B682BBB251D2846FFF753F8E06A154B1C
:1020C0001B68984201D9134B186000EB8000294629
:1020D000114B03EB8000FFF720F8E26A0F4B1B68FF
:1020E000DB6A9A4211D901200D4B186038BD4FF0C0
:1020F000500383F31188BFF36F8FBFF34F8FFEE759
:1021000029460848FFF709F8E7E70020EEE700BF97
:102110003005002038050020C4000020B800002051
:10212000B405002070050020034B1B680360034BBF
:102130001B684360704700BF6C050020B00500209D
:10214000D8B170B50C46054601B300F043FD1B4BFA
:1021500019686B68C81A2268B2F1FF3F27D0184E81
:102160003668D5F800C0B44501D08B4224D98242EC
:1021700015D80023236001241AE04FF0500383F3A5
:102180001188BFF36F8FBFF34F8FFEE74FF05003FF
:1021900083F31188BFF36F8FBFF34F8FFEE75B1A96
:1021A000134423602846FFF7BFFF002400E000240B
:1021B00000F032FD204670BD0124F9E7B005002093
:1021C0006C050020014B01221A607047B405002005
:1021D000054B1B6833B1054B1B680BB100207047E2
:1021E0000220704701207047840500203005002040
:1021F00000283BD038B504461E4B1B68834208D0EC
:102200004FF0500383F31188BFF36F8FBFF34F8FED
:10221000FEE7036D43B94FF0500383F31188BFF31A
:102220006F8FBFF34F8FFEE7013B0365C16AC26C3E
:1022300091421DD00BB1002038BD051D2846FEF788
:1022400090FFE06CE062C0F13803A3610A4B1B68A9
:10225000984201D9084B186000EB80002946074BD3
:1022600003EB8000FEF759FF0120E5E700207047EF
:102270000020E1E7B800002038050020C40000205D
:10228000064B1A681368B3FA83F35B09036013B94A
:10229000D368186870470020704700BFB805002059
:1022A00008B54160006191420CD8D21A83699A4204
:1022B00001D3012008BD011D094B1868FEF738FF46
:1022C0000020F7E79A4201D2994206D2011D054B40
:1022D0001868FEF72DFF0020ECE70120EAE700BFB9
:1022E000BC050020B805002030B583B000F072FCBA
:1022F000114B1B681BB100F08FFC03B030BD0F4DBC
:102300002846FEF7FCFE0E4C2046FEF7F8FE0D4B6D
:102310001D600D4B1C60002300930C4B0C4A1021D8
:102320000A20FFF724F8044B18600028E3D009497D
:10233000FFF740FADFE700BFDC0600206006002060
:1023400074060020B8050020BC0500208C06002083
:10235000C00500200C3E000810B588B0FFF7C4FF90
:10236000124B1B68CBB100240594069407AA06A95A
:1023700005A800F0BBFA059B0293069B019302237C
:1023800000932346079A0A490A48FFF7D1FB0A4BF4
:10239000186010B1012008B010BD4FF0500383F356
:1023A0001188BFF36F8FBFF34F8FFEE7DC0600206D
:1023B000143E000899260008E0060020B8B19C46AB
:1023C00003461848006858B300B585B000910192E3
:1023D000029305291CDCFFF7FBFE022810D0002326
:1023E0001A4669460F480068FFF70AF815E04FF0F3
:1023F000500383F31188BFF36F8FBFF34F8FFEE756
:102400000023069A694607480068FEF7F9FF04E0D2
:10241000002362466946FFF7B7F805B05DF804FB94
:1024200000207047DC06002070B582B01A4B1B6894
:102430001A6852B3DB681E68DC68251D2846FEF763
:1024400090FE636A20469847E369012BEED1A369A9
:1024500033449E4207D26360246129460E4B1868BC
:10246000FEF766FEE2E7002100910B463246204669
:10247000FFF7A4FF0028D9D14FF0500383F3118850
:10248000BFF36F8FBFF34F8FFEE7044A1068024916
:102490000860136002B070BDB8050020BC050020C4
:1024A00038B50546FFF748FC0446074B1B688342D6
:1024B00005D800232B60044B1C60204638BDFFF775
:1024C000B3FF01232B60F6E78806002070B582B0C9
:1024D00006460D4614490968C968CC68201DFEF7F8
:1024E00040FEE169012904D0636A2046984702B0A2
:1024F00070BDA16933462A4631442046FFF7D0FE1D
:102500000028F1D0002100910B4632462046FFF70B
:1025100055FF0028E8D14FF0500383F31188BFF333
:102520006F8FBFF34F8FFEE7B805002070B582B004
:1025300006460C46FFF7F8FB01A8FFF7B1FF019B29
:102540002BBB05460CB9B0421AD22CB1124B1B68FA
:102550001C68B4FA84F464092246711B0F4B186896
:10256000FFF73CF9FFF77AFC98B94FF0E0234FF002
:102570008052C3F8042DBFF34F8FBFF36F8F08E075
:10258000FFF76CFC29463046FFF7A0FF01E0FFF79C
:1025900065FC02B070BD00BFBC050020DC06002059
:1025A00010B588B002E0049B002B0FDA002204A9CA
:1025B000384B1868FFF74EF8002869D0049B002BB1
:1025C000F1DA07990698059B9847ECE7069C636942
:1025D00013B1201DFEF7C5FD03A8FFF761FF049BA3
:1025E000092BE3D801A252F823F000BF15260008FA
:1025F0001526000815260008AD2500085B260008F2
:10260000812600081526000815260008AD250008BB
:102610005B260008059BA169024619442046FFF786
:102620003FFE0028C2D0636A20469847E369012B29
:10263000BCD1A269002100910B46059802442046B6
:10264000FFF7BCFE0028B1D14FF0500383F311888F
:10265000BFF36F8FBFF34F8FFEE70599A16131B1D3
:102660000346024601442046FFF71AFE9EE74FF05C
:10267000500383F31188BFF36F8FBFF34F8FFEE7D3
:1026800094F82C30002B91D1204600F015FA8DE7FC
:1026900008B010BDDC06002000B583B001A8FFF72C
:1026A000EFFD0199FFF742FFFFF77AFFF6E7000021
:1026B000EFF3058393B9EFF3108393B90C4B1868CC
:1026C000022804D080B90A4B01221A607047EFF348
:1026D0001183002BF6D06FF0050070476FF00500F6
:1026E00070476FF0050070474FF0FF30704700BF34
:1026F0004009002008B5EFF30583B3B9EFF3108369
:10270000B3B90E4B1B68022B08D0012B13D10B4B16
:1027100002221A60FFF7BAFA002008BDEFF3118217
:10272000002AF2D06FF00500F7E76FF00500F4E73C
:102730006FF00500F1E74FF0FF30EEE740090020B1
:10274000F0B587B000240494EFF30584002C43D146
:10275000EFF31083002B3FD1334B1B68022B16D0B5
:10276000002839D000238DF8173062B3156895B171
:10277000936903B918235C1E372C51D8546814F0A0
:10278000010F4FD156694EB14FEA960C08E0EFF3B6
:1027900011830BBBE4E70DF11705E9E74FF0800C5F
:1027A00094682CB1D7685B2F02D9176907B1B6B905
:1027B00014B14FF0FF340CE0D46894B914699CB1A3
:1027C0004FF0FF3405E0002418234FF0800C0DF18A
:1027D0001705012C0AD0ACB1049807B0F0BD012454
:1027E000F7E74FF0FF34F4E70024F2E7146992684A
:1027F0000292019400930B4662462946FFF798F92E
:102800000490E9E704AA019200930B461FFA8CF2A8
:102810002946FFF7C7F90128DED000230493DBE740
:102820000020DAE70020D8E74009002008B5EFF3E0
:10283000058303BBEFF3108303BB144B1B68022B10
:1028400009D0F0B1FFF7E2F9042811D8DFE800F071
:102850000A1C0C0C0E00EFF31183002BF1D04FF08B
:10286000FF3000E0022008BD0320FCE70420FAE767
:102870004FF0FF30F7E74FF0FF30F4E74FF0FF3055
:10288000F1E74FF0FF30EEE70120ECE740090020D0
:1028900008B5EFF30583A3B9EFF31083A3B90C4B8D
:1028A0001B68022B02D040B9002008BDEFF3118352
:1028B000002BF8D06FF00500F7E7FFF74BFB002087
:1028C000F3E76FF00500F0E76FF00500EDE700BFFC
:1028D00040090020034B0360034B0B60802313600F
:1028E000704700BFE4080020E4060020034B0360AB
:1028F000034B0B604FF4807313607047440D00204E
:1029000044090020124A12F0070F1ED0D11D21F0F9
:102910000701C1F5406313440A460E4802600021D6
:1029200041601344083B23F007030B4803605960E0
:102930001960991A51601360084B1960084B1960AF
:10294000084B4FF000421A6070474FF44063E4E7D1
:10295000A40D0020B0190020A00D0020AC1900200B
:10296000A8190020A4190020154B1A461B688342A1
:10297000FBD3516802EB010C844509D0416800EBA0
:10298000010C634509D00360904218D01060704775
:102990004068014451601046F0E710B4094C2468C7
:1029A000A3420AD05B681944416013681B68036046
:1029B000904200D0106010BC70470460F8E7704788
:1029C000B0190020A00D002070B50546FFF7ACF946
:1029D000344B1B68A3B1344B1B681D424AD135B13F
:1029E000083515F0070F02D025F007050835002D32
:1029F00042D02E4B1B68AB424DD32D4A146804E0E5
:102A0000FFF780FFE7E722461C466368AB4202D22D
:102A10002368002BF7D1234B1B68A3423DD01668D7
:102A200008362368136063685B1B102B10D960198C
:102A300010F0070F08D04FF0500383F31188BFF355
:102A40006F8FBFF34F8FFEE743606560FFF78CFF2A
:102A5000626816490B689B1A0B60164909688B421D
:102A600001D214490B60104B1B68134363600023B1
:102A7000236002E0002600E00026FFF7EFF916F0E1
:102A8000070F0CD04FF0500383F31188BFF36F8F03
:102A9000BFF34F8FFEE70026EFE70026EDE7304655
:102AA00070BD00BFA00D0020A4190020A8190020AF
:102AB000B0190020AC19002080B338B50446A0F14D
:102AC000080550F8043C164A1268134208D14FF02A
:102AD000500383F31188BFF36F8FBFF34F8FFEE76F
:102AE00050F8081C41B14FF0500383F31188BFF335
:102AF0006F8FBFF34F8FFEE723EA020340F8043CD9
:102B0000FFF712F954F8041C064A13680B441360CB
:102B10002846FFF729FFFFF7A1F938BD704700BF2E
:102B2000A4190020A819002082B0002301930D4BA6
:102B30001B68B3F1FF3F08D04FF0500383F31188B7
:102B4000BFF36F8FBFF34F8FFEE74FF0500383F358
:102B50001188BFF36F8FBFF34F8F019B002BFCD009
:102B600002B070470C00002006480068006880F33F
:102B7000088862B661B6BFF34F8FBFF36F8F00DF77
:102B800000BF000008ED00E04FF0807340F8043C07
:102B900021F0010140F8081C034B40F80C3C40F8C0
:102BA000202C4038704700BF292B0008000000008F
:102BB000074B19680868B0E8F00F80F30988BFF385
:102BC0006F8F4FF0000080F311884EF00D0E7047AC
:102BD000B80000204FF0500383F31188BFF36F8FCC
:102BE000BFF34F8F0B4A136801331360012B00D0E2
:102BF00070474FF0E023D3F8043D13F0FF0FF7D0F8
:102C00004FF0500383F31188BFF36F8FBFF34F8FE3
:102C1000FEE700BF0C000020094B1B6843B94FF0D2
:102C2000500383F31188BFF36F8FBFF34F8FFEE71D
:102C3000013B034A13600BB983F31188704700BF4F
:102C40000C00002000000000000000000000000058
:102C5000EFF30980BFF36F8F0D4B1A6820E9F00F77
:102C600010602DE908404FF0500080F31188FFF705
:102C700097F94FF0000080F31188BDE8084019680B
:102C80000868B0E8F00F80F30988BFF36F8F7047D2
:102C9000B800002008B54FF0500383F31188BFF34C
:102CA0006F8FBFF34F8FFFF74DF828B14FF0E02340
:102CB0004FF08052C3F8042D002383F3118808BD20
:102CC0004FF0E022002313619361054B1B68054917
:102CD000A1FB03139B09013B536107231361704759
:102CE00008000020D34D621010B582B02A4B1A782C
:102CF000D2B20192FF221A701B78DBB28DF803303A
:102D00009DF8033003F05003244A1370244B07222C
:102D10001A6009E0224A1368013B13609DF80330F2
:102D20005B00DBB28DF803309DF8033013F0800FA9
:102D3000F0D11B4B1B68032B08D04FF0500383F3DB
:102D40001188BFF36F8FBFF34F8FFEE71B02144A4A
:102D5000136003F4E0631360019BDBB20E4A13704F
:102D60004FF0E023D3F8202D42F47002C3F8202D59
:102D7000D3F8202D42F07042C3F8202DFFF7A0FFBA
:102D80000024084B1C60FFF7EFFEFFF709F9FFF77F
:102D9000CBFE204602B010BD00E400E0B8190020D0
:102DA000BC1900200C000020EFF305830F2B0FD976
:102DB000114A9B5CDBB2114A12789A4208D94FF053
:102DC000500383F31188BFF36F8FBFF34F8FFEE77C
:102DD0004FF0E023D3F80C3D03F4E063084A126897
:102DE000934208D94FF0500383F31188BFF36F8FDC
:102DF000BFF34F8FFEE77047F0E300E0B819002003
:102E0000BC1900200268D36823F49073D360026871
:102E1000536923F001035361202380F83A3070474F
:102E200090F83930DBB2212B01D002207047836843
:102E3000B3F5805F17D0036A5A1C02621A780368E0
:102E40005A60C38C9BB2013B9BB2C3844BB90268EE
:102E5000D36823F08003D3600268D36843F0400353
:102E6000D360002070470369002BE4D1036A1B88FC
:102E70000268C3F308035360036A02330362E0E7A6
:102E800010B504460268136923F44053C1680B432C
:102E9000136183680269134342691A430168CB686E
:102EA00023F4B05323F00C031343CB60026853693F
:102EB00023F4407381690B4353610268134B9A42B8
:102EC00020D0FDF7C5FD024602EB820202EB820232
:102ED00063689B00B2FBF3F20D48A0FB0231490985
:102EE000642303FB11231B013233A0FB03035B09A3
:102EF00003F0F00202EB011203F00F032168134408
:102F00008B6010BDFDF7B4FD0246DDE700380140DF
:102F10001F85EB5158B310B5044690F839300BB308
:102F2000242384F839302268D36823F40053D36013
:102F30002046FFF7A5FF2268136923F4904313612D
:102F40002268536923F02A0353612268D36843F44B
:102F50000053D3600020E063202384F8393084F8E4
:102F60003A3010BD80F83830FDF7BCF9D8E70120C1
:102F70007047704708B50168CA6822F04002CA600D
:102F8000202280F83920FFF7F4FF002008BD7047A9
:102F900008B590F83A30DBB2222B41D18368B3F503
:102FA000805F14D0826AB3F5805F02D0E3B9036911
:102FB000D3B903685B681370836A01338362C38D7E
:102FC0009BB2013B9BB2C385A3B1002008BD02693F
:102FD000002AE7D1826A03685B68C3F308031380A1
:102FE000836A02338362EAE703685B6803F07F0366
:102FF0001370E1E70268D36823F02003D36002680E
:10300000D36823F48073D3600268536923F001030B
:103010005361202380F83A30FFF7B9FF0020D5E74D
:103020000220D3E77047000010B504460268136819
:10303000D168526913F00F0005D113F0200F02D0B0
:1030400011F0200F13D128B112F0010213D111F4A5
:10305000907F10D113F0800F02D011F0800F6CD14F
:1030600013F0400F02D011F0400F6AD110BD20467E
:10307000FFF78EFFFAE713F0010F06D011F4807FFF
:1030800003D0E06B40F00100E06313F0040F04D0C4
:103090001AB1E06B40F00200E06313F0020F04D0BD
:1030A0001AB1E06B40F00400E06313F0080F07D0A2
:1030B00011F0200F00D11AB1E26B42F00802E26376
:1030C000E26B002AD2D013F0200F02D011F0200FB3
:1030D00021D123685B6903F04003E26B12F0080F13
:1030E00000D123B32046FFF78DFE23685A6912F002
:1030F000400F18D05A6922F040025A61636B73B1D5
:10310000124A5A63606BFDF701FE0028AED0606B77
:10311000436B9847AAE72046FFF73AFFD9E72046D6
:10312000FFF780FFA2E72046FFF77CFF9EE72046DF
:10313000FFF778FF0023E36398E72046FFF770FE70
:1031400094E72046FFF716FF90E700BF51310008D3
:1031500008B5406A0023C385C384FFF763FF08BD39
:10316000002800F0CC8070B5044690F83D30002B6C
:1031700077D0242384F83D302268136823F00103BC
:1031800013602268136843F40043136022681368D5
:1031900023F400431360FDF75BFC62685A4B9A42CC
:1031A00064D85A4B98428CBF00230123002B40F077
:1031B000A8805749A1FB00318B0C25686A6822F072
:1031C0003F0242EA91426A6021680A6A22F03F02A5
:1031D00066684D4DAE424FD8013313430B622168F0
:1031E000CA6922F44F4222F0FF026568464B9D42B5
:1031F0004CD8431E6D00B3FBF5F3013340F6FC7071
:10320000034278D0C3F30B031A43CA6121680B68E9
:1032100023F0C003E269206A024313430B60216874
:103220008B6823F4034323F0FF032269E068024321
:1032300013438B602168CB6823F0FF036269A069A8
:1032400002431343CB602268136843F00103136009
:1032500000202064202384F83D30206384F83E0061
:1032600070BD80F83C30FCF7CFFF82E7294B9842D5
:103270008CBF0023012399E74FF4967505FB03F3F8
:10328000254DA5FB03539B090133A6E7A668BEB9EC
:10329000431E05EB450CB3FBFCF30133C3F30B03F7
:1032A000B3FA83F35B0943BBC6B9431E05EB45057F
:1032B000B3FBF5F30133C3F30B0343F40043A3E77C
:1032C000431E05EB850C0CEB8C0CB3FBFCF30133BC
:1032D000C3F30B03B3FA83F35B09E4E7431E05EB87
:1032E000850505EB8505B3FBF5F30133C3F30B034C
:1032F00043F4404388E7042386E7012384E7012061
:1033000070470120ACE700BFA08601007F841E004B
:1033100083DE1B43FF083D00D34D6210002856D0CA
:1033200010B50446436A33B94368B3F5827F05D0CC
:103330000023C36102E00023036143610023A36211
:1033400094F85130002B3CD0022384F8513022688D
:10335000136823F040031360636803F48273A26868
:1033600002F404421343E26802F400621343226948
:1033700002F002021343626902F001021343A269E0
:1033800002F400721343E26902F038021343226A26
:1033900002F080021343A26A02F400522168134330
:1033A0000B60638B226803F0040353602268D369C7
:1033B00023F40063D36100206065012384F8513059
:1033C00010BD84F850302046FCF752FFBCE70120C6
:1033D000704700002DE9F04188B000240494059462
:1033E00006940794264B9A6942F010029A619A69F2
:1033F00002F010020192019A9A6942F004029A6165
:103400009A6902F004020292029A9A6942F0080252
:103410009A619B6903F008030393039BDFF86480C0
:1034200022464FF400514046FDF760FC164D2246FF
:103430004CF203012846FDF759FC4FF40053049366
:103440000127059706940226079604A94046FDF732
:103450003DFB4CF20303049305970694079604A9D9
:103460002846FDF733FB4FF480630493074B059325
:10347000069404A92846FDF729FB08B0BDE8F081B1
:103480000010024000100140000C0140000011102B
:103490000FB400B583B004AA52F8041B01920020B7
:1034A00000F0F0FB03B05DF804EB04B0704772B6B7
:1034B000FEE700B591B02822002106A800F078FCB4
:1034C000002301930293039304930593022306932D
:1034D00001230A9310230B9306A8FCF7BDFF68B9DC
:1034E0000F2301930021029103910491059101A8FA
:1034F000FDF7F2F920B911B05DF804FBFFF7D7FF33
:10350000FFF7D5FF08B50A480A4B03604FF4E133D3
:10351000436000238360C36003610C2242618361C6
:10352000C361FFF7F7FC00B908BDFFF7C0FF00BF9C
:103530006C1B00200038014008B50A480A4B0360A4
:103540000A4B436000238360C3604FF480420261F2
:1035500043618361C3610362FFF702FE00B908BDE6
:10356000FFF7A5FFC01A002000540040A08601000C
:1035700008B50D480D4B03604FF482734360002380
:103580008360C360036143614FF400728261C36171
:103590000362436283620A23C362FFF7BFFE00B97E
:1035A00008BDFFF784FF00BF141B0020003001405E
:1035B00010B582B000F064F9002000904FF4805301
:1035C000184A194900F024F9184C2046FFF760FF0B
:1035D0001748FFF75DFF2046FFF75AFF1548FFF732
:1035E00057FFFCF7FFFE1448FFF752FFFFF761FF9C
:1035F0001248FFF74DFFFFF7EDFE1148FFF748FFB8
:10360000FFF780FF0F48FFF743FFFFF795FF0E48D6
:10361000FFF73EFFFFF7ACFF0C48FFF739FF02B0A2
:1036200010BD00BFC01900201C3E0008283E000845
:103630005C3E0008903E0008A83E0008C43E00081A
:10364000DC3E0008F83E0008103F0008283F000854
:103650000369C268934204D881688A1A1344581EC9
:103660007047981A013870472DE9F8430446884698
:103670001646C5688768A7EB0509914507D94068D4
:10368000284400F087FB3544E560BDE8F8834068D6
:103690004A46284400F07EFBED1B35442A4608EBE1
:1036A0000901606800F076FBE560EEE72DE9F8437C
:1036B000064688461746C5684FF0000918E05B1BB0
:1036C0005A1EB3685C1B944228BF1446BC4228BFF4
:1036D0003C46706822464146284400F05BFBA1440A
:1036E000A0443F1B2544B368AB4209D0F5604FB1FD
:1036F00033699D42E3D3B2685B1B1A44013AE0E7A9
:103700000025F3E74846BDE8F8830000124B03228A
:103710001A615A6111499961114ADA614FF4806264
:103720001A6200229A625A62DA6219660D49596673
:10373000102199661A67DA665A670B4A1068C3F84F
:1037400007000A4A92E8030018609980090C9971F1
:1037500020229A71704700BFAC1B00201C3E00085D
:10376000641C0020541C00205C3F0008603F0008DF
:10377000F8B50F461646184B451C05EB450503EBFF
:10378000C50500EB400003EBC003DC6A012C11D03F
:10379000022C1CD014B100242046F8BD2846FFF7A7
:1037A00057FF8642F8D8324639462846FFF75CFF75
:1037B0003446F1E72846FFF74BFF3446864228BFE0
:1037C0000446224639462846FFF74EFFE4E72846DE
:1037D000FFF76CFF0446DFE7AC1B0020F8B504469A
:1037E0000D461646094B1B786BB1EFF311874FF06E
:1037F000200181F31188324629462046FFF7B8FFA1
:1038000087F31188F8BDFFF781FFEEE7AC1B0020BE
:10381000F8B504460D4617461E46184B1B7833B3C1
:10382000022C27D8EFF3118C4FF0200181F311887F
:1038300094B1124A601C00EB4003DB00D55000EB52
:10384000400002EBC000476004EB440302EBC302FC
:10385000166200239362536204EB4404074B03EBAC
:10386000C403069ADA628CF311880020F8BDFFF7D2
:103870004DFFD5E74FF0FF30F8E700BFAC1B00204D
:1038800008B5FFF743FF08BD10B504468268531C16
:103890004068834205D820688154A360E3680133FF
:1038A000E360A26863689A4200D010BD2168206975
:1038B000FFF794FFA368984203D04FF0FF33E36013
:1038C000F3E70023A360F0E72DE9F84F81460F46A8
:1038D00015461E46DDF828A00B9A0B464FF001084E
:1038E00003E0B3FBF5F308F10108AB42F9D2B045B0
:1038F00000D2B04612F0010B18D1BAF1000F15D06A
:1039000012F0020F02D0BEB1202400E02024BAF150
:10391000000F0BD0C24509D90AF1FF3A21464846AB
:10392000FFF7B2FFD9F80C30002BF0DAD9F80C30E1
:10393000002B25DB012404E03024E8E7013E05FBF1
:1039400004F4012EFAD8B7FBF4F39D42F7D900E056
:103950001C46B7FBF4F304FB1377124AD15C4846CC
:10396000FFF792FFD9F80C30002B03DBB4FBF5F323
:10397000AC42EDD2BBF1000F02D0BAF1000F01D181
:10398000BDE8F88FBAF1000FFAD0C245F8D90AF1B4
:10399000FF3A20214846FFF777FFD9F80C30002B7B
:1039A000F0DAEDE7683F00082DE9F04782B00746FE
:1039B0008846154699460A9EDDF82CA081EAE17CEE
:1039C000ACEBE17C012402E09CFBF5FC0134654595
:1039D000FADD4C4500D24C4636B1B8F1000F02DB9F
:1039E0001AF0040F00D0013E1AF0020F02D0B9F114
:1039F000000F03D01AF0010F00D1AEB9FB68002B05
:103A00000FDBB8F1000F1CDB1AF0040F20D1FB68AC
:103A1000002B06DB0AF00303022B1ED0FB68002BF1
:103A20002DDA02B0BDE8F087002EE7D0A642E5D936
:103A3000013E20213846FFF727FFFB68002BF3DA11
:103A4000DCE7C8F100082D213846FFF71DFFDEE74F
:103A50002B213846FFF718FFD9E7B9F1000FDDD168
:103A6000002EDBD0002ED9D0A642D7D9013E30217E
:103A70003846FFF709FFFB68002BF3DACEE7CDF8F5
:103A800004A000964B462A4641463846FFF71CFFE5
:103A9000C7E70000F0B599B006460C46154603ABE3
:103AA00013934023149300231593179016938BE0E0
:103AB0000020012211E040F0010001340CE040F050
:103AC0000200013408E040F00400013404E040F05A
:103AD0000800013400E0002212B32378233B0D2BB1
:103AE000F9D801A151F823F0CF3A0008D73A0008DD
:103AF000D73A0008D73A0008D73A0008D73A000862
:103B0000D73A0008D73A0008C73A0008D73A000861
:103B1000B73A0008D73A0008D73A0008BF3A000879
:103B20002378A3F13001C9B2092907D8013402EB87
:103B3000820203EB4203A3F13002F1E72E2B02D005
:103B40000023217814E00134002306E0013403EB64
:103B5000830301EB4301A1F130032178A1F1300C83
:103B60005FFA8CFCBCF1090FF0D9EAE714F8011FE9
:103B70006C29FBD06829F9D025296DD020D378296C
:103B80001ED858291CD35839202919D8DFE801F04C
:103B90003D18181818181818181818112718181878
:103BA000181818181818181857181848183218180C
:103BB0003D002B681A1D2A60197813A8FFF764FED0
:103BC0000134169B002B4CDB14F8011B002948D054
:103BD00025293FF46DAF13A8FFF756FEF1E72968DA
:103BE0000F1D2F600968019000920A2213A8FFF7A9
:103BF000DBFEE5E729680F1D2F6009680190009240
:103C00000A2213A8FFF760FEDAE729680F1D2F606C
:103C1000096801900092102213A8FFF755FECFE724
:103C20002B681A1D2A601F6817F8011B0029C7D0CE
:103C300013A8FFF729FE169B002BF5DAC0E72B68C7
:103C40001A1D2A601968002301930823009310228B
:103C500013A8FFF739FEB3E7252113A8FFF714FED9
:103C6000AEE7169B002B05DD159A32B9159A169B07
:103C700013441693169819B0F0BD03A93046FFF708
:103C8000ADFDF3E70EB400B582B003AB53F8041BEF
:103C9000019301AAFFF7FEFE02B05DF804EB03B04A
:103CA0007047000008B54FF4FA70FEF7F1FD4FF4CD
:103CB00000510248FDF720F8F5E700BF0010014071
:103CC00000B58BB02422002101A800F071F80A4B46
:103CD00001934FF4007306930823079301AA002170
:103CE0000648FEF72DFDFEF7A1FD013018BF0120AB
:103CF0000BB05DF804FB00BF783F0008A53C00084E
:103D0000002103E00B4B5B58435004310A480B4B36
:103D100042189A42F6D30A4A02E0002342F8043BD2
:103D2000084B9A42F9D3FDF7E9F900F00FF8FCF7D8
:103D300017FA70478C3F0008000000201000002098
:103D40001000002064200020FEE7000070B500266F
:103D50000C4D0D4C641BA410A64209D100F030F8A4
:103D600000260A4D0A4C641BA410A64205D170BD62
:103D700055F8043B98470136EEE755F8043B984761
:103D80000136F2E7843F0008843F0008843F0008C2
:103D9000883F00080A44914200F1FF3300D1704788
:103DA00010B511F8014B914203F8014FF9D110BD44
:103DB00003460244934200D1704703F8011BF9E720
:103DC000F8B500BFF8BC08BC9E467047F8B500BF08
:083DD000F8BC08BC9E467047D8
:103DD80002030405060708090A0B0C0D0E0F101044
:103DE80000000000000000000000000001020304C1
:103DF80006070809000000000102030449444C4575
:103E080000000000546D725100000000546D7220D3
:103E1800537663005465726D696E616C0000000032
:103E28000A203D3D3D3D3D3D3D3D3D3D3D3D3D3D0A
:103E38003D3D3D3D3D3D3D3D3D3D3D3D3D3D3D3DAA
:103E48003D3D3D3D3D3D3D3D3D3D3D3D3D3D200AEA
:103E5800000000000A2020202020202020202020F0
:103E68002041524D2D4743432050726F6A65637459
:103E78002054656D706C61746520202020202020FE
:103E88002020200A000000000A52756E6E696E67D5
:103E98002048414C5F496E697428292E2E2E0A004D
:103EA8000A496E697469616C697A696E6720636C26
:103EB8006F636B732E2E2E0A000000000A496E698C
:103EC8007469616C697A696E67204750494F2E2E74
:103ED8002E0A00000A496E697469616C697A696E14
:103EE80067205553415254312E2E2E0A00000000EF
:103EF8000A496E697469616C697A696E672049322A
:103F080043312E2E2E0A00000A496E697469616CCD
:103F1800697A696E6720535049312E2E2E0A0000A7
:103F28000A486172647761726520696E69746961B3
:103F38006C697A6174696F6E20636F6D706C6574FB
:103F4800656420776974686F7574206572726F7222
:103F5800732E0A00525454005345474745520000F7
:103F680030313233343536373839414243444546A7
:0C3F7800626C696E6B5461736B0000009A
:043F840035010008FB
:043F8800110100081B
:103F8C0001000000100000000024F400AAAAAAAA54
:0400000508003D01B1
:00000001FF
